{
  "contractName": "TenderAuction",
  "abi": [
    {
      "constant": true,
      "inputs": [],
      "name": "tenderCount",
      "outputs": [
        {
          "name": "",
          "type": "uint256"
        }
      ],
      "payable": false,
      "stateMutability": "view",
      "type": "function"
    },
    {
      "constant": true,
      "inputs": [
        {
          "name": "",
          "type": "uint256"
        }
      ],
      "name": "bids",
      "outputs": [
        {
          "name": "id",
          "type": "uint256"
        },
        {
          "name": "tenderId",
          "type": "uint256"
        },
        {
          "name": "tenderTitle",
          "type": "string"
        },
        {
          "name": "bid",
          "type": "uint256"
        },
        {
          "name": "userHash",
          "type": "address"
        }
      ],
      "payable": false,
      "stateMutability": "view",
      "type": "function"
    },
    {
      "constant": true,
      "inputs": [
        {
          "name": "",
          "type": "uint256"
        }
      ],
      "name": "tenders",
      "outputs": [
        {
          "name": "id",
          "type": "uint256"
        },
        {
          "name": "itemName",
          "type": "string"
        },
        {
          "name": "itemDescription",
          "type": "string"
        },
        {
          "name": "quantity",
          "type": "uint256"
        },
        {
          "name": "userHash",
          "type": "address"
        }
      ],
      "payable": false,
      "stateMutability": "view",
      "type": "function"
    },
    {
      "constant": true,
      "inputs": [
        {
          "name": "",
          "type": "uint256"
        }
      ],
      "name": "whoIsBidder",
      "outputs": [
        {
          "name": "",
          "type": "address"
        }
      ],
      "payable": false,
      "stateMutability": "view",
      "type": "function"
    },
    {
      "constant": true,
      "inputs": [
        {
          "name": "",
          "type": "address"
        }
      ],
      "name": "uploaders",
      "outputs": [
        {
          "name": "id",
          "type": "uint256"
        },
        {
          "name": "username",
          "type": "string"
        }
      ],
      "payable": false,
      "stateMutability": "view",
      "type": "function"
    },
    {
      "constant": true,
      "inputs": [],
      "name": "bidderCount",
      "outputs": [
        {
          "name": "",
          "type": "uint256"
        }
      ],
      "payable": false,
      "stateMutability": "view",
      "type": "function"
    },
    {
      "constant": true,
      "inputs": [
        {
          "name": "",
          "type": "uint256"
        }
      ],
      "name": "whoIsUploader",
      "outputs": [
        {
          "name": "",
          "type": "address"
        }
      ],
      "payable": false,
      "stateMutability": "view",
      "type": "function"
    },
    {
      "constant": true,
      "inputs": [],
      "name": "bidCount",
      "outputs": [
        {
          "name": "",
          "type": "uint256"
        }
      ],
      "payable": false,
      "stateMutability": "view",
      "type": "function"
    },
    {
      "constant": true,
      "inputs": [],
      "name": "uploaderCount",
      "outputs": [
        {
          "name": "",
          "type": "uint256"
        }
      ],
      "payable": false,
      "stateMutability": "view",
      "type": "function"
    },
    {
      "constant": true,
      "inputs": [
        {
          "name": "",
          "type": "address"
        }
      ],
      "name": "bidders",
      "outputs": [
        {
          "name": "id",
          "type": "uint256"
        },
        {
          "name": "username",
          "type": "string"
        }
      ],
      "payable": false,
      "stateMutability": "view",
      "type": "function"
    },
    {
      "constant": false,
      "inputs": [
        {
          "name": "_username",
          "type": "string"
        }
      ],
      "name": "createUploader",
      "outputs": [],
      "payable": false,
      "stateMutability": "nonpayable",
      "type": "function"
    },
    {
      "constant": false,
      "inputs": [
        {
          "name": "_username",
          "type": "string"
        }
      ],
      "name": "createBidder",
      "outputs": [],
      "payable": false,
      "stateMutability": "nonpayable",
      "type": "function"
    },
    {
      "constant": false,
      "inputs": [
        {
          "name": "_itemName",
          "type": "string"
        },
        {
          "name": "_itemDescription",
          "type": "string"
        },
        {
          "name": "_quantity",
          "type": "uint256"
        }
      ],
      "name": "createTender",
      "outputs": [],
      "payable": false,
      "stateMutability": "nonpayable",
      "type": "function"
    },
    {
      "constant": false,
      "inputs": [
        {
          "name": "_tenderId",
          "type": "uint256"
        },
        {
          "name": "_bid",
          "type": "uint256"
        }
      ],
      "name": "createBid",
      "outputs": [],
      "payable": false,
      "stateMutability": "nonpayable",
      "type": "function"
    }
  ],
  "bytecode": "0x60806040526000805560006001556000600255600060035534801561002357600080fd5b506114c2806100336000396000f3fe608060405234801561001057600080fd5b50600436106100ea5760003560e01c8063907dbc1d1161008c578063b7751c7111610066578063b7751c711461027a578063ce6b980114610296578063d45fada2146102b2578063fcc8f793146102d0576100ea565b8063907dbc1d146102105780639fa958631461022c578063b40a56271461025c576100ea565b806346b1cb5d116100c857806346b1cb5d146101755780635dc1c9ab146101a557806363968e19146101c157806370d29c11146101f2576100ea565b80631f058776146100ef5780634423c5f11461010d578063465e1def14610141575b600080fd5b6100f7610301565b6040516101049190611250565b60405180910390f35b61012760048036036101229190810190611119565b610307565b6040516101389594939291906112fc565b60405180910390f35b61015b60048036036101569190810190611119565b6103f5565b60405161016c95949392919061129b565b60405180910390f35b61018f600480360361018a9190810190611119565b61057b565b60405161019c9190611215565b60405180910390f35b6101bf60048036036101ba9190810190611059565b6105ae565b005b6101db60048036036101d69190810190611030565b61082d565b6040516101e992919061126b565b60405180910390f35b6101fa6108e9565b6040516102079190611250565b60405180910390f35b61022a6004803603610225919081019061109a565b6108ef565b005b61024660048036036102419190810190611119565b6109f0565b6040516102539190611215565b60405180910390f35b610264610a23565b6040516102719190611250565b60405180910390f35b610294600480360361028f9190810190611142565b610a29565b005b6102b060048036036102ab9190810190611059565b610bcc565b005b6102ba610e4b565b6040516102c79190611250565b60405180910390f35b6102ea60048036036102e59190810190611030565b610e51565b6040516102f892919061126b565b60405180910390f35b60005481565b6005602052806000526040600020600091509050806000015490806001015490806002018054600181600116156101000203166002900480601f0160208091040260200160405190810160405280929190818152602001828054600181600116156101000203166002900480156103bf5780601f10610394576101008083540402835291602001916103bf565b820191906000526020600020905b8154815290600101906020018083116103a257829003601f168201915b5050505050908060030154908060040160009054906101000a900473ffffffffffffffffffffffffffffffffffffffff16905085565b6004602052806000526040600020600091509050806000015490806001018054600181600116156101000203166002900480601f0160208091040260200160405190810160405280929190818152602001828054600181600116156101000203166002900480156104a75780601f1061047c576101008083540402835291602001916104a7565b820191906000526020600020905b81548152906001019060200180831161048a57829003601f168201915b505050505090806002018054600181600116156101000203166002900480601f0160208091040260200160405190810160405280929190818152602001828054600181600116156101000203166002900480156105455780601f1061051a57610100808354040283529160200191610545565b820191906000526020600020905b81548152906001019060200180831161052857829003601f168201915b5050505050908060030154908060040160009054906101000a900473ffffffffffffffffffffffffffffffffffffffff16905085565b60076020528060005260406000206000915054906101000a900473ffffffffffffffffffffffffffffffffffffffff1681565b336000600190505b6002548111610678578173ffffffffffffffffffffffffffffffffffffffff166006600083815260200190815260200160002060009054906101000a900473ffffffffffffffffffffffffffffffffffffffff1673ffffffffffffffffffffffffffffffffffffffff16141561066b57600260011461066a576040517f08c379a000000000000000000000000000000000000000000000000000000000815260040161066190611230565b60405180910390fd5b5b80806001019150506105b6565b506000600190505b6003548111610742578173ffffffffffffffffffffffffffffffffffffffff166007600083815260200190815260200160002060009054906101000a900473ffffffffffffffffffffffffffffffffffffffff1673ffffffffffffffffffffffffffffffffffffffff161415610735576002600114610734576040517f08c379a000000000000000000000000000000000000000000000000000000000815260040161072b90611230565b60405180910390fd5b5b8080600101915050610680565b506002600081548092919060010191905055503360066000600254815260200190815260200160002060006101000a81548173ffffffffffffffffffffffffffffffffffffffff021916908373ffffffffffffffffffffffffffffffffffffffff1602179055506040518060400160405280600254815260200183815250600860003373ffffffffffffffffffffffffffffffffffffffff1673ffffffffffffffffffffffffffffffffffffffff168152602001908152602001600020600082015181600001556020820151816001019080519060200190610825929190610f0d565b509050505050565b6008602052806000526040600020600091509050806000015490806001018054600181600116156101000203166002900480601f0160208091040260200160405190810160405280929190818152602001828054600181600116156101000203166002900480156108df5780601f106108b4576101008083540402835291602001916108df565b820191906000526020600020905b8154815290600101906020018083116108c257829003601f168201915b5050505050905082565b60035481565b60008081548092919060010191905055506040518060a0016040528060005481526020018481526020018381526020018281526020013373ffffffffffffffffffffffffffffffffffffffff168152506004600080548152602001908152602001600020600082015181600001556020820151816001019080519060200190610979929190610f0d565b506040820151816002019080519060200190610996929190610f0d565b506060820151816003015560808201518160040160006101000a81548173ffffffffffffffffffffffffffffffffffffffff021916908373ffffffffffffffffffffffffffffffffffffffff160217905550905050505050565b60066020528060005260406000206000915054906101000a900473ffffffffffffffffffffffffffffffffffffffff1681565b60015481565b6001600081548092919060010191905055506060600460008481526020019081526020016000206001018054600181600116156101000203166002900480601f016020809104026020016040519081016040528092919081815260200182805460018160011615610100020316600290048015610ae75780601f10610abc57610100808354040283529160200191610ae7565b820191906000526020600020905b815481529060010190602001808311610aca57829003601f168201915b505050505090506040518060a0016040528060015481526020018481526020018281526020018381526020013373ffffffffffffffffffffffffffffffffffffffff1681525060056000600154815260200190815260200160002060008201518160000155602082015181600101556040820151816002019080519060200190610b72929190610f0d565b506060820151816003015560808201518160040160006101000a81548173ffffffffffffffffffffffffffffffffffffffff021916908373ffffffffffffffffffffffffffffffffffffffff160217905550905050505050565b336000600190505b6002548111610c96578173ffffffffffffffffffffffffffffffffffffffff166006600083815260200190815260200160002060009054906101000a900473ffffffffffffffffffffffffffffffffffffffff1673ffffffffffffffffffffffffffffffffffffffff161415610c89576002600114610c88576040517f08c379a0000000000000000000000000000000000000000000000000000000008152600401610c7f90611230565b60405180910390fd5b5b8080600101915050610bd4565b506000600190505b6003548111610d60578173ffffffffffffffffffffffffffffffffffffffff166007600083815260200190815260200160002060009054906101000a900473ffffffffffffffffffffffffffffffffffffffff1673ffffffffffffffffffffffffffffffffffffffff161415610d53576002600114610d52576040517f08c379a0000000000000000000000000000000000000000000000000000000008152600401610d4990611230565b60405180910390fd5b5b8080600101915050610c9e565b506003600081548092919060010191905055503360076000600354815260200190815260200160002060006101000a81548173ffffffffffffffffffffffffffffffffffffffff021916908373ffffffffffffffffffffffffffffffffffffffff1602179055506040518060400160405280600354815260200183815250600960003373ffffffffffffffffffffffffffffffffffffffff1673ffffffffffffffffffffffffffffffffffffffff168152602001908152602001600020600082015181600001556020820151816001019080519060200190610e43929190610f0d565b509050505050565b60025481565b6009602052806000526040600020600091509050806000015490806001018054600181600116156101000203166002900480601f016020809104026020016040519081016040528092919081815260200182805460018160011615610100020316600290048015610f035780601f10610ed857610100808354040283529160200191610f03565b820191906000526020600020905b815481529060010190602001808311610ee657829003601f168201915b5050505050905082565b828054600181600116156101000203166002900490600052602060002090601f016020900481019282601f10610f4e57805160ff1916838001178555610f7c565b82800160010185558215610f7c579182015b82811115610f7b578251825591602001919060010190610f60565b5b509050610f899190610f8d565b5090565b610faf91905b80821115610fab576000816000905550600101610f93565b5090565b90565b600081359050610fc18161145a565b92915050565b600082601f830112610fd857600080fd5b8135610feb610fe682611383565b611356565b9150808252602083016020830185838301111561100757600080fd5b611012838284611407565b50505092915050565b60008135905061102a81611471565b92915050565b60006020828403121561104257600080fd5b600061105084828501610fb2565b91505092915050565b60006020828403121561106b57600080fd5b600082013567ffffffffffffffff81111561108557600080fd5b61109184828501610fc7565b91505092915050565b6000806000606084860312156110af57600080fd5b600084013567ffffffffffffffff8111156110c957600080fd5b6110d586828701610fc7565b935050602084013567ffffffffffffffff8111156110f257600080fd5b6110fe86828701610fc7565b925050604061110f8682870161101b565b9150509250925092565b60006020828403121561112b57600080fd5b60006111398482850161101b565b91505092915050565b6000806040838503121561115557600080fd5b60006111638582860161101b565b92505060206111748582860161101b565b9150509250929050565b611187816113cb565b82525050565b6000611198826113af565b6111a281856113ba565b93506111b2818560208601611416565b6111bb81611449565b840191505092915050565b60006111d36017836113ba565b91507f4164647265737320616c72656164792070726573656e740000000000000000006000830152602082019050919050565b61120f816113fd565b82525050565b600060208201905061122a600083018461117e565b92915050565b60006020820190508181036000830152611249816111c6565b9050919050565b60006020820190506112656000830184611206565b92915050565b60006040820190506112806000830185611206565b8181036020830152611292818461118d565b90509392505050565b600060a0820190506112b06000830188611206565b81810360208301526112c2818761118d565b905081810360408301526112d6818661118d565b90506112e56060830185611206565b6112f2608083018461117e565b9695505050505050565b600060a0820190506113116000830188611206565b61131e6020830187611206565b8181036040830152611330818661118d565b905061133f6060830185611206565b61134c608083018461117e565b9695505050505050565b6000604051905081810181811067ffffffffffffffff8211171561137957600080fd5b8060405250919050565b600067ffffffffffffffff82111561139a57600080fd5b601f19601f8301169050602081019050919050565b600081519050919050565b600082825260208201905092915050565b60006113d6826113dd565b9050919050565b600073ffffffffffffffffffffffffffffffffffffffff82169050919050565b6000819050919050565b82818337600083830152505050565b60005b83811015611434578082015181840152602081019050611419565b83811115611443576000848401525b50505050565b6000601f19601f8301169050919050565b611463816113cb565b811461146e57600080fd5b50565b61147a816113fd565b811461148557600080fd5b5056fea265627a7a72305820be841f2269c8ca79c1caeb55862c302e4e5d393676086e8a0972cd4e02dfdbcb6c6578706572696d656e74616cf50037",
  "source": "pragma solidity >=0.4.21 <0.6.0;\npragma experimental ABIEncoderV2;\n\ncontract TenderAuction {\n    uint public tenderCount = 0;\n    uint public bidCount = 0;\n    uint public uploaderCount = 0;\n    uint public bidderCount = 0;\n\n    struct Uploader {\n        uint id;\n        string username;\n    }\n\n    struct Bidder {\n        uint id;\n        string username;\n    }\n\n    struct Bid {\n        uint id;\n        uint tenderId;\n        string tenderTitle;\n        uint bid;\n        address userHash;\n    }\n\n    struct Tender {\n        uint id;\n        string itemName;\n        string itemDescription;\n        uint quantity;\n        address userHash;\n    }\n\n    mapping (uint => Tender) public tenders;\n    mapping (uint => Bid) public bids;\n    mapping (uint => address) public whoIsUploader;\n    mapping (uint => address) public whoIsBidder;\n    mapping (address => Uploader) public uploaders;\n    mapping (address => Bidder) public bidders;\n\n    // modifier isUploader(address _userHash) {\n    //     require(uploaders[_userHash]);\n    //     _;\n    // }\n\n    // modifier isBidder(address _userHash) {\n    //     require(bidders[_userHash]);\n    //     _;\n    // }\n\n    modifier alreadyPresent(address _address) {\n        for(uint i = 1; i <= uploaderCount; i++) {\n            if(whoIsUploader[i] == _address) {\n                require(1 == 2, \"Address already present\");\n            }\n        }\n\n        for(uint i = 1; i <= bidderCount; i++) {\n            if(whoIsBidder[i] == _address) {\n                require(1 == 2, \"Address already present\");\n            }\n        }\n        _;\n    }\n\n    function createUploader(string memory _username) public alreadyPresent(msg.sender) {\n        uploaderCount++;\n        whoIsUploader[uploaderCount] = msg.sender;\n        uploaders[msg.sender] = Uploader(uploaderCount, _username);\n    }\n\n    function createBidder(string memory _username) public alreadyPresent(msg.sender) {\n        bidderCount++;\n        whoIsBidder[bidderCount] = msg.sender;\n        bidders[msg.sender] = Bidder(bidderCount, _username);\n    }\n\n    function createTender(string memory _itemName, string memory _itemDescription, uint _quantity) public {\n        tenderCount++;\n        tenders[tenderCount] = Tender(tenderCount, _itemName, _itemDescription, _quantity, msg.sender);\n    }\n\n    function createBid(uint _tenderId, uint _bid) public {\n        bidCount++;\n        string memory tenderName = tenders[_tenderId].itemName;\n        bids[bidCount] = Bid(bidCount, _tenderId, tenderName, _bid, msg.sender);\n    }\n}",
  "sourcePath": "/home/guest/blockchain/tenderAuction/contracts/Tender.sol",
  "compiler": {
    "name": "solc",
    "version": "0.5.8+commit.23d335f2.Emscripten.clang"
  },
  "schemaVersion": "3.0.16",
  "updatedAt": "2019-12-28T15:22:57.299Z",
  "devdoc": {
    "methods": {}
  },
  "userdoc": {
    "methods": {}
  }
}